{
  "contractName": "NFT",
  "abi": [
    {
      "inputs": [],
      "stateMutability": "nonpayable",
      "type": "constructor"
    },
    {
      "anonymous": false,
      "inputs": [
        {
          "indexed": true,
          "internalType": "address",
          "name": "owner",
          "type": "address"
        },
        {
          "indexed": true,
          "internalType": "address",
          "name": "approved",
          "type": "address"
        },
        {
          "indexed": true,
          "internalType": "uint256",
          "name": "tokenId",
          "type": "uint256"
        }
      ],
      "name": "Approval",
      "type": "event"
    },
    {
      "anonymous": false,
      "inputs": [
        {
          "indexed": true,
          "internalType": "address",
          "name": "owner",
          "type": "address"
        },
        {
          "indexed": true,
          "internalType": "address",
          "name": "operator",
          "type": "address"
        },
        {
          "indexed": false,
          "internalType": "bool",
          "name": "approved",
          "type": "bool"
        }
      ],
      "name": "ApprovalForAll",
      "type": "event"
    },
    {
      "anonymous": false,
      "inputs": [
        {
          "indexed": true,
          "internalType": "address",
          "name": "minter",
          "type": "address"
        },
        {
          "indexed": false,
          "internalType": "uint256",
          "name": "price",
          "type": "uint256"
        },
        {
          "indexed": false,
          "internalType": "uint256",
          "name": "nftID",
          "type": "uint256"
        },
        {
          "indexed": false,
          "internalType": "string",
          "name": "uri",
          "type": "string"
        }
      ],
      "name": "Minted",
      "type": "event"
    },
    {
      "anonymous": false,
      "inputs": [
        {
          "indexed": true,
          "internalType": "address",
          "name": "owner",
          "type": "address"
        },
        {
          "indexed": false,
          "internalType": "uint256",
          "name": "nftID",
          "type": "uint256"
        },
        {
          "indexed": false,
          "internalType": "bool",
          "name": "isListed",
          "type": "bool"
        }
      ],
      "name": "NftListStatus",
      "type": "event"
    },
    {
      "anonymous": false,
      "inputs": [
        {
          "indexed": true,
          "internalType": "address",
          "name": "previousOwner",
          "type": "address"
        },
        {
          "indexed": true,
          "internalType": "address",
          "name": "newOwner",
          "type": "address"
        }
      ],
      "name": "OwnershipTransferred",
      "type": "event"
    },
    {
      "anonymous": false,
      "inputs": [
        {
          "indexed": true,
          "internalType": "address",
          "name": "owner",
          "type": "address"
        },
        {
          "indexed": false,
          "internalType": "uint256",
          "name": "oldPrice",
          "type": "uint256"
        },
        {
          "indexed": false,
          "internalType": "uint256",
          "name": "newPrice",
          "type": "uint256"
        },
        {
          "indexed": false,
          "internalType": "uint256",
          "name": "nftID",
          "type": "uint256"
        }
      ],
      "name": "PriceUpdate",
      "type": "event"
    },
    {
      "anonymous": false,
      "inputs": [
        {
          "indexed": true,
          "internalType": "address",
          "name": "previousOwner",
          "type": "address"
        },
        {
          "indexed": true,
          "internalType": "address",
          "name": "newOwner",
          "type": "address"
        },
        {
          "indexed": false,
          "internalType": "uint256",
          "name": "price",
          "type": "uint256"
        },
        {
          "indexed": false,
          "internalType": "uint256",
          "name": "nftID",
          "type": "uint256"
        },
        {
          "indexed": false,
          "internalType": "string",
          "name": "uri",
          "type": "string"
        }
      ],
      "name": "Purchase",
      "type": "event"
    },
    {
      "anonymous": false,
      "inputs": [
        {
          "indexed": true,
          "internalType": "address",
          "name": "from",
          "type": "address"
        },
        {
          "indexed": true,
          "internalType": "address",
          "name": "to",
          "type": "address"
        },
        {
          "indexed": true,
          "internalType": "uint256",
          "name": "tokenId",
          "type": "uint256"
        }
      ],
      "name": "Transfer",
      "type": "event"
    },
    {
      "inputs": [],
      "name": "_contractOwner",
      "outputs": [
        {
          "internalType": "address payable",
          "name": "",
          "type": "address"
        }
      ],
      "stateMutability": "view",
      "type": "function"
    },
    {
      "inputs": [
        {
          "internalType": "address",
          "name": "to",
          "type": "address"
        },
        {
          "internalType": "uint256",
          "name": "tokenId",
          "type": "uint256"
        }
      ],
      "name": "approve",
      "outputs": [],
      "stateMutability": "nonpayable",
      "type": "function"
    },
    {
      "inputs": [
        {
          "internalType": "address",
          "name": "owner",
          "type": "address"
        }
      ],
      "name": "balanceOf",
      "outputs": [
        {
          "internalType": "uint256",
          "name": "",
          "type": "uint256"
        }
      ],
      "stateMutability": "view",
      "type": "function"
    },
    {
      "inputs": [
        {
          "internalType": "uint256",
          "name": "tokenId",
          "type": "uint256"
        }
      ],
      "name": "getApproved",
      "outputs": [
        {
          "internalType": "address",
          "name": "",
          "type": "address"
        }
      ],
      "stateMutability": "view",
      "type": "function"
    },
    {
      "inputs": [
        {
          "internalType": "address",
          "name": "owner",
          "type": "address"
        },
        {
          "internalType": "address",
          "name": "operator",
          "type": "address"
        }
      ],
      "name": "isApprovedForAll",
      "outputs": [
        {
          "internalType": "bool",
          "name": "",
          "type": "bool"
        }
      ],
      "stateMutability": "view",
      "type": "function"
    },
    {
      "inputs": [
        {
          "internalType": "uint256",
          "name": "",
          "type": "uint256"
        }
      ],
      "name": "listedMap",
      "outputs": [
        {
          "internalType": "bool",
          "name": "",
          "type": "bool"
        }
      ],
      "stateMutability": "view",
      "type": "function"
    },
    {
      "inputs": [],
      "name": "name",
      "outputs": [
        {
          "internalType": "string",
          "name": "",
          "type": "string"
        }
      ],
      "stateMutability": "view",
      "type": "function"
    },
    {
      "inputs": [],
      "name": "owner",
      "outputs": [
        {
          "internalType": "address",
          "name": "",
          "type": "address"
        }
      ],
      "stateMutability": "view",
      "type": "function"
    },
    {
      "inputs": [
        {
          "internalType": "uint256",
          "name": "tokenId",
          "type": "uint256"
        }
      ],
      "name": "ownerOf",
      "outputs": [
        {
          "internalType": "address",
          "name": "",
          "type": "address"
        }
      ],
      "stateMutability": "view",
      "type": "function"
    },
    {
      "inputs": [
        {
          "internalType": "uint256",
          "name": "",
          "type": "uint256"
        }
      ],
      "name": "priceMap",
      "outputs": [
        {
          "internalType": "uint256",
          "name": "",
          "type": "uint256"
        }
      ],
      "stateMutability": "view",
      "type": "function"
    },
    {
      "inputs": [],
      "name": "renounceOwnership",
      "outputs": [],
      "stateMutability": "nonpayable",
      "type": "function"
    },
    {
      "inputs": [
        {
          "internalType": "address",
          "name": "from",
          "type": "address"
        },
        {
          "internalType": "address",
          "name": "to",
          "type": "address"
        },
        {
          "internalType": "uint256",
          "name": "tokenId",
          "type": "uint256"
        }
      ],
      "name": "safeTransferFrom",
      "outputs": [],
      "stateMutability": "nonpayable",
      "type": "function"
    },
    {
      "inputs": [
        {
          "internalType": "address",
          "name": "from",
          "type": "address"
        },
        {
          "internalType": "address",
          "name": "to",
          "type": "address"
        },
        {
          "internalType": "uint256",
          "name": "tokenId",
          "type": "uint256"
        },
        {
          "internalType": "bytes",
          "name": "_data",
          "type": "bytes"
        }
      ],
      "name": "safeTransferFrom",
      "outputs": [],
      "stateMutability": "nonpayable",
      "type": "function"
    },
    {
      "inputs": [
        {
          "internalType": "address",
          "name": "operator",
          "type": "address"
        },
        {
          "internalType": "bool",
          "name": "approved",
          "type": "bool"
        }
      ],
      "name": "setApprovalForAll",
      "outputs": [],
      "stateMutability": "nonpayable",
      "type": "function"
    },
    {
      "inputs": [
        {
          "internalType": "bytes4",
          "name": "interfaceId",
          "type": "bytes4"
        }
      ],
      "name": "supportsInterface",
      "outputs": [
        {
          "internalType": "bool",
          "name": "",
          "type": "bool"
        }
      ],
      "stateMutability": "view",
      "type": "function"
    },
    {
      "inputs": [],
      "name": "symbol",
      "outputs": [
        {
          "internalType": "string",
          "name": "",
          "type": "string"
        }
      ],
      "stateMutability": "view",
      "type": "function"
    },
    {
      "inputs": [],
      "name": "tokenCounter",
      "outputs": [
        {
          "internalType": "uint256",
          "name": "",
          "type": "uint256"
        }
      ],
      "stateMutability": "view",
      "type": "function"
    },
    {
      "inputs": [
        {
          "internalType": "uint256",
          "name": "tokenId",
          "type": "uint256"
        }
      ],
      "name": "tokenURI",
      "outputs": [
        {
          "internalType": "string",
          "name": "",
          "type": "string"
        }
      ],
      "stateMutability": "view",
      "type": "function"
    },
    {
      "inputs": [
        {
          "internalType": "uint256",
          "name": "",
          "type": "uint256"
        }
      ],
      "name": "tokenURIMap",
      "outputs": [
        {
          "internalType": "string",
          "name": "",
          "type": "string"
        }
      ],
      "stateMutability": "view",
      "type": "function"
    },
    {
      "inputs": [
        {
          "internalType": "address",
          "name": "from",
          "type": "address"
        },
        {
          "internalType": "address",
          "name": "to",
          "type": "address"
        },
        {
          "internalType": "uint256",
          "name": "tokenId",
          "type": "uint256"
        }
      ],
      "name": "transferFrom",
      "outputs": [],
      "stateMutability": "nonpayable",
      "type": "function"
    },
    {
      "inputs": [
        {
          "internalType": "address",
          "name": "newOwner",
          "type": "address"
        }
      ],
      "name": "transferOwnership",
      "outputs": [],
      "stateMutability": "nonpayable",
      "type": "function"
    },
    {
      "inputs": [
        {
          "internalType": "string",
          "name": "_tokenURI",
          "type": "string"
        },
        {
          "internalType": "address",
          "name": "_toAddress",
          "type": "address"
        },
        {
          "internalType": "uint256",
          "name": "_price",
          "type": "uint256"
        }
      ],
      "name": "mint",
      "outputs": [
        {
          "internalType": "uint256",
          "name": "",
          "type": "uint256"
        }
      ],
      "stateMutability": "nonpayable",
      "type": "function"
    },
    {
      "inputs": [
        {
          "internalType": "uint256",
          "name": "_id",
          "type": "uint256"
        }
      ],
      "name": "buy",
      "outputs": [],
      "stateMutability": "payable",
      "type": "function"
    },
    {
      "inputs": [
        {
          "internalType": "uint256",
          "name": "_tokenId",
          "type": "uint256"
        },
        {
          "internalType": "uint256",
          "name": "_price",
          "type": "uint256"
        }
      ],
      "name": "updatePrice",
      "outputs": [
        {
          "internalType": "bool",
          "name": "",
          "type": "bool"
        }
      ],
      "stateMutability": "nonpayable",
      "type": "function"
    },
    {
      "inputs": [
        {
          "internalType": "uint256",
          "name": "_tokenId",
          "type": "uint256"
        },
        {
          "internalType": "bool",
          "name": "shouldBeListed",
          "type": "bool"
        }
      ],
      "name": "updateListingStatus",
      "outputs": [
        {
          "internalType": "bool",
          "name": "",
          "type": "bool"
        }
      ],
      "stateMutability": "nonpayable",
      "type": "function"
    }
  ],
  "bytecode": "0x60806040523480156200001157600080fd5b506040518060400160405280600a81526020017f4f6e67616d614e465473000000000000000000000000000000000000000000008152506040518060400160405280600481526020017f4f4e47410000000000000000000000000000000000000000000000000000000081525081600090805190602001906200009692919062000201565b508060019080519060200190620000af92919062000201565b505050620000e4620000cf62000133640100000000026401000000009004565b6200013b640100000000026401000000009004565b33600760006101000a81548173ffffffffffffffffffffffffffffffffffffffff021916908373ffffffffffffffffffffffffffffffffffffffff160217905550600160088190555062000315565b600033905090565b6000600660009054906101000a900473ffffffffffffffffffffffffffffffffffffffff16905081600660006101000a81548173ffffffffffffffffffffffffffffffffffffffff021916908373ffffffffffffffffffffffffffffffffffffffff1602179055508173ffffffffffffffffffffffffffffffffffffffff168173ffffffffffffffffffffffffffffffffffffffff167f8be0079c531659141344cd1fd0a4f28419497f9722a3daafe3b4186f6b6457e060405160405180910390a35050565b8280546200020f90620002e0565b90600052602060002090601f0160209004810192826200023357600085556200027f565b82601f106200024e57805160ff19168380011785556200027f565b828001600101855582156200027f579182015b828111156200027e57825182559160200191906001019062000261565b5b5090506200028e919062000292565b5090565b5b80821115620002ad57600081600090555060010162000293565b5090565b7f4e487b7100000000000000000000000000000000000000000000000000000000600052602260045260246000fd5b60006002820490506001821680620002f957607f821691505b6020821081036200030f576200030e620002b1565b5b50919050565b613c6780620003256000396000f3fe608060405260043610610183576000357c01000000000000000000000000000000000000000000000000000000009004806382367b2d116100ee578063b88d4fde116100a7578063d082e38111610081578063d082e381146105b7578063d96a094a146105e2578063e985e9c5146105fe578063f2fde38b1461063b57610183565b8063b88d4fde14610514578063bc8ba28f1461053d578063c87b56dd1461057a57610183565b806382367b2d146103de5780638da5cb5b1461041b57806395d89b411461044657806398214bcb14610471578063a22cb465146104ae578063b25c7260146104d757610183565b806342842e0e1161014057806342842e0e146102aa5780635a18ee1a146102d35780636352211e1461031057806370a082311461034d578063715018a61461038a5780637e8816b9146103a157610183565b806301ffc9a71461018857806306fdde03146101c5578063081812fc146101f0578063095ea7b31461022d57806323b872dd146102565780632bb3b1141461027f575b600080fd5b34801561019457600080fd5b506101af60048036038101906101aa91906125d6565b610664565b6040516101bc919061261e565b60405180910390f35b3480156101d157600080fd5b506101da610746565b6040516101e791906126d2565b60405180910390f35b3480156101fc57600080fd5b506102176004803603810190610212919061272a565b6107d8565b6040516102249190612798565b60405180910390f35b34801561023957600080fd5b50610254600480360381019061024f91906127df565b61085d565b005b34801561026257600080fd5b5061027d6004803603810190610278919061281f565b610974565b005b34801561028b57600080fd5b506102946109d4565b6040516102a19190612893565b60405180910390f35b3480156102b657600080fd5b506102d160048036038101906102cc919061281f565b6109fa565b005b3480156102df57600080fd5b506102fa60048036038101906102f5919061272a565b610a1a565b60405161030791906126d2565b60405180910390f35b34801561031c57600080fd5b506103376004803603810190610332919061272a565b610aba565b6040516103449190612798565b60405180910390f35b34801561035957600080fd5b50610374600480360381019061036f91906128ae565b610b6b565b60405161038191906128ea565b60405180910390f35b34801561039657600080fd5b5061039f610c22565b005b3480156103ad57600080fd5b506103c860048036038101906103c39190612a3a565b610caa565b6040516103d591906128ea565b60405180910390f35b3480156103ea57600080fd5b5061040560048036038101906104009190612aa9565b610d7f565b604051610412919061261e565b60405180910390f35b34801561042757600080fd5b50610430610e83565b60405161043d9190612798565b60405180910390f35b34801561045257600080fd5b5061045b610ead565b60405161046891906126d2565b60405180910390f35b34801561047d57600080fd5b5061049860048036038101906104939190612b15565b610f3f565b6040516104a5919061261e565b60405180910390f35b3480156104ba57600080fd5b506104d560048036038101906104d09190612b55565b61103c565b005b3480156104e357600080fd5b506104fe60048036038101906104f9919061272a565b611052565b60405161050b91906128ea565b60405180910390f35b34801561052057600080fd5b5061053b60048036038101906105369190612c36565b61106a565b005b34801561054957600080fd5b50610564600480360381019061055f919061272a565b6110cc565b604051610571919061261e565b60405180910390f35b34801561058657600080fd5b506105a1600480360381019061059c919061272a565b6110ec565b6040516105ae91906126d2565b60405180910390f35b3480156105c357600080fd5b506105cc611193565b6040516105d991906128ea565b60405180910390f35b6105fc60048036038101906105f7919061272a565b611199565b005b34801561060a57600080fd5b5061062560048036038101906106209190612cb9565b611246565b604051610632919061261e565b60405180910390f35b34801561064757600080fd5b50610662600480360381019061065d91906128ae565b6112da565b005b60007f80ac58cd000000000000000000000000000000000000000000000000000000007bffffffffffffffffffffffffffffffffffffffffffffffffffffffff1916827bffffffffffffffffffffffffffffffffffffffffffffffffffffffff1916148061072f57507f5b5e139f000000000000000000000000000000000000000000000000000000007bffffffffffffffffffffffffffffffffffffffffffffffffffffffff1916827bffffffffffffffffffffffffffffffffffffffffffffffffffffffff1916145b8061073f575061073e826113d1565b5b9050919050565b60606000805461075590612d28565b80601f016020809104026020016040519081016040528092919081815260200182805461078190612d28565b80156107ce5780601f106107a3576101008083540402835291602001916107ce565b820191906000526020600020905b8154815290600101906020018083116107b157829003601f168201915b5050505050905090565b60006107e38261143b565b610822576040517f08c379a000000000000000000000000000000000000000000000000000000000815260040161081990612dcb565b60405180910390fd5b6004600083815260200190815260200160002060009054906101000a900473ffffffffffffffffffffffffffffffffffffffff169050919050565b600061086882610aba565b90508073ffffffffffffffffffffffffffffffffffffffff168373ffffffffffffffffffffffffffffffffffffffff16036108d8576040517f08c379a00000000000000000000000000000000000000000000000000000000081526004016108cf90612e5d565b60405180910390fd5b8073ffffffffffffffffffffffffffffffffffffffff166108f76114a7565b73ffffffffffffffffffffffffffffffffffffffff1614806109265750610925816109206114a7565b611246565b5b610965576040517f08c379a000000000000000000000000000000000000000000000000000000000815260040161095c90612eef565b60405180910390fd5b61096f83836114af565b505050565b61098561097f6114a7565b82611568565b6109c4576040517f08c379a00000000000000000000000000000000000000000000000000000000081526004016109bb90612f81565b60405180910390fd5b6109cf838383611646565b505050565b600760009054906101000a900473ffffffffffffffffffffffffffffffffffffffff1681565b610a158383836040518060200160405280600081525061106a565b505050565b60096020528060005260406000206000915090508054610a3990612d28565b80601f0160208091040260200160405190810160405280929190818152602001828054610a6590612d28565b8015610ab25780601f10610a8757610100808354040283529160200191610ab2565b820191906000526020600020905b815481529060010190602001808311610a9557829003601f168201915b505050505081565b6000806002600084815260200190815260200160002060009054906101000a900473ffffffffffffffffffffffffffffffffffffffff169050600073ffffffffffffffffffffffffffffffffffffffff168173ffffffffffffffffffffffffffffffffffffffff1603610b62576040517f08c379a0000000000000000000000000000000000000000000000000000000008152600401610b5990613013565b60405180910390fd5b80915050919050565b60008073ffffffffffffffffffffffffffffffffffffffff168273ffffffffffffffffffffffffffffffffffffffff1603610bdb576040517f08c379a0000000000000000000000000000000000000000000000000000000008152600401610bd2906130a5565b60405180910390fd5b600360008373ffffffffffffffffffffffffffffffffffffffff1673ffffffffffffffffffffffffffffffffffffffff168152602001908152602001600020549050919050565b610c2a6114a7565b73ffffffffffffffffffffffffffffffffffffffff16610c48610e83565b73ffffffffffffffffffffffffffffffffffffffff1614610c9e576040517f08c379a0000000000000000000000000000000000000000000000000000000008152600401610c9590613111565b60405180910390fd5b610ca860006118ac565b565b600080600854905082600a6000838152602001908152602001600020819055506001600b600083815260200190815260200160002060006101000a81548160ff021916908315150217905550610d008482611972565b610d0a8186611990565b60086000815480929190610d1d90613160565b91905055508373ffffffffffffffffffffffffffffffffffffffff167ff2cb5e52049d127ad1c335f1cc25f2fdbc911bec1beb2611f4c1e8b1c274d4b4848388604051610d6c939291906131a8565b60405180910390a2809150509392505050565b600080600a6000858152602001908152602001600020549050610da184610aba565b73ffffffffffffffffffffffffffffffffffffffff163373ffffffffffffffffffffffffffffffffffffffff1614610e0e576040517f08c379a0000000000000000000000000000000000000000000000000000000008152600401610e0590613232565b60405180910390fd5b82600a6000868152602001908152602001600020819055503373ffffffffffffffffffffffffffffffffffffffff167f8647dab5101cbe18afb171756e9753802f9d66725bf2346b079b8b1a275e0116828587604051610e7093929190613252565b60405180910390a2600191505092915050565b6000600660009054906101000a900473ffffffffffffffffffffffffffffffffffffffff16905090565b606060018054610ebc90612d28565b80601f0160208091040260200160405190810160405280929190818152602001828054610ee890612d28565b8015610f355780601f10610f0a57610100808354040283529160200191610f35565b820191906000526020600020905b815481529060010190602001808311610f1857829003601f168201915b5050505050905090565b6000610f4a83610aba565b73ffffffffffffffffffffffffffffffffffffffff163373ffffffffffffffffffffffffffffffffffffffff1614610fb7576040517f08c379a0000000000000000000000000000000000000000000000000000000008152600401610fae90613232565b60405180910390fd5b81600b600085815260200190815260200160002060006101000a81548160ff0219169083151502179055503373ffffffffffffffffffffffffffffffffffffffff167f3fd63d9ca8dc693a1b9911e664951294721009a4f6239c862d6719a160a1edfc848460405161102a929190613289565b60405180910390a26001905092915050565b61104e6110476114a7565b8383611a04565b5050565b600a6020528060005260406000206000915090505481565b61107b6110756114a7565b83611568565b6110ba576040517f08c379a00000000000000000000000000000000000000000000000000000000081526004016110b190612f81565b60405180910390fd5b6110c684848484611b70565b50505050565b600b6020528060005260406000206000915054906101000a900460ff1681565b60606110f78261143b565b611136576040517f08c379a000000000000000000000000000000000000000000000000000000000815260040161112d90613324565b60405180910390fd5b6000611140611bcc565b90506000815111611160576040518060200160405280600081525061118b565b8061116a84611be3565b60405160200161117b929190613380565b6040516020818303038152906040525b915050919050565b60085481565b6111a281611d62565b60006111ad82610aba565b905060003390506111bd83611edf565b8073ffffffffffffffffffffffffffffffffffffffff168273ffffffffffffffffffffffffffffffffffffffff167fef258f47a33a1cba99d81ea828f234ff5d6cb31034c0f79ecb5198f8c6d118f6600a6000878152602001908152602001600020548661122a886110ec565b604051611239939291906131a8565b60405180910390a3505050565b6000600560008473ffffffffffffffffffffffffffffffffffffffff1673ffffffffffffffffffffffffffffffffffffffff16815260200190815260200160002060008373ffffffffffffffffffffffffffffffffffffffff1673ffffffffffffffffffffffffffffffffffffffff16815260200190815260200160002060009054906101000a900460ff16905092915050565b6112e26114a7565b73ffffffffffffffffffffffffffffffffffffffff16611300610e83565b73ffffffffffffffffffffffffffffffffffffffff1614611356576040517f08c379a000000000000000000000000000000000000000000000000000000000815260040161134d90613111565b60405180910390fd5b600073ffffffffffffffffffffffffffffffffffffffff168173ffffffffffffffffffffffffffffffffffffffff16036113c5576040517f08c379a00000000000000000000000000000000000000000000000000000000081526004016113bc90613416565b60405180910390fd5b6113ce816118ac565b50565b60007f01ffc9a7000000000000000000000000000000000000000000000000000000007bffffffffffffffffffffffffffffffffffffffffffffffffffffffff1916827bffffffffffffffffffffffffffffffffffffffffffffffffffffffff1916149050919050565b60008073ffffffffffffffffffffffffffffffffffffffff166002600084815260200190815260200160002060009054906101000a900473ffffffffffffffffffffffffffffffffffffffff1673ffffffffffffffffffffffffffffffffffffffff1614159050919050565b600033905090565b816004600083815260200190815260200160002060006101000a81548173ffffffffffffffffffffffffffffffffffffffff021916908373ffffffffffffffffffffffffffffffffffffffff160217905550808273ffffffffffffffffffffffffffffffffffffffff1661152283610aba565b73ffffffffffffffffffffffffffffffffffffffff167f8c5be1e5ebec7d5bd14f71427d1e84f3dd0314c0f7b2291e5b200ac8c7c3b92560405160405180910390a45050565b60006115738261143b565b6115b2576040517f08c379a00000000000000000000000000000000000000000000000000000000081526004016115a9906134a8565b60405180910390fd5b60006115bd83610aba565b90508073ffffffffffffffffffffffffffffffffffffffff168473ffffffffffffffffffffffffffffffffffffffff16148061162c57508373ffffffffffffffffffffffffffffffffffffffff16611614846107d8565b73ffffffffffffffffffffffffffffffffffffffff16145b8061163d575061163c8185611246565b5b91505092915050565b8273ffffffffffffffffffffffffffffffffffffffff1661166682610aba565b73ffffffffffffffffffffffffffffffffffffffff16146116bc576040517f08c379a00000000000000000000000000000000000000000000000000000000081526004016116b39061353a565b60405180910390fd5b600073ffffffffffffffffffffffffffffffffffffffff168273ffffffffffffffffffffffffffffffffffffffff160361172b576040517f08c379a0000000000000000000000000000000000000000000000000000000008152600401611722906135cc565b60405180910390fd5b6117368383836120a7565b6117416000826114af565b6001600360008573ffffffffffffffffffffffffffffffffffffffff1673ffffffffffffffffffffffffffffffffffffffff168152602001908152602001600020600082825461179191906135ec565b925050819055506001600360008473ffffffffffffffffffffffffffffffffffffffff1673ffffffffffffffffffffffffffffffffffffffff16815260200190815260200160002060008282546117e89190613620565b92505081905550816002600083815260200190815260200160002060006101000a81548173ffffffffffffffffffffffffffffffffffffffff021916908373ffffffffffffffffffffffffffffffffffffffff160217905550808273ffffffffffffffffffffffffffffffffffffffff168473ffffffffffffffffffffffffffffffffffffffff167fddf252ad1be2c89b69c2b068fc378daa952ba7f163c4a11628f55a4df523b3ef60405160405180910390a46118a78383836120ac565b505050565b6000600660009054906101000a900473ffffffffffffffffffffffffffffffffffffffff16905081600660006101000a81548173ffffffffffffffffffffffffffffffffffffffff021916908373ffffffffffffffffffffffffffffffffffffffff1602179055508173ffffffffffffffffffffffffffffffffffffffff168173ffffffffffffffffffffffffffffffffffffffff167f8be0079c531659141344cd1fd0a4f28419497f9722a3daafe3b4186f6b6457e060405160405180910390a35050565b61198c8282604051806020016040528060008152506120b1565b5050565b6119998261143b565b6119d8576040517f08c379a00000000000000000000000000000000000000000000000000000000081526004016119cf906136e8565b60405180910390fd5b806009600084815260200190815260200160002090805190602001906119ff9291906124c7565b505050565b8173ffffffffffffffffffffffffffffffffffffffff168373ffffffffffffffffffffffffffffffffffffffff1603611a72576040517f08c379a0000000000000000000000000000000000000000000000000000000008152600401611a6990613754565b60405180910390fd5b80600560008573ffffffffffffffffffffffffffffffffffffffff1673ffffffffffffffffffffffffffffffffffffffff16815260200190815260200160002060008473ffffffffffffffffffffffffffffffffffffffff1673ffffffffffffffffffffffffffffffffffffffff16815260200190815260200160002060006101000a81548160ff0219169083151502179055508173ffffffffffffffffffffffffffffffffffffffff168373ffffffffffffffffffffffffffffffffffffffff167f17307eab39ab6107e8899845ad3d59bd9653f200f220920489ca2b5937696c3183604051611b63919061261e565b60405180910390a3505050565b611b7b848484611646565b611b878484848461210c565b611bc6576040517f08c379a0000000000000000000000000000000000000000000000000000000008152600401611bbd906137e6565b60405180910390fd5b50505050565b606060405180602001604052806000815250905090565b606060008203611c2a576040518060400160405280600181526020017f30000000000000000000000000000000000000000000000000000000000000008152509050611d5d565b600082905060005b60008214611c5c578080611c4590613160565b915050600a82611c559190613835565b9150611c32565b60008167ffffffffffffffff811115611c7857611c7761290f565b5b6040519080825280601f01601f191660200182016040528015611caa5781602001600182028036833780820191505090505b5090505b60008514611d5657600182611cc391906135ec565b9150600a85611cd29190613866565b6030611cde9190613620565b7f010000000000000000000000000000000000000000000000000000000000000002818381518110611d1357611d12613897565b5b60200101907effffffffffffffffffffffffffffffffffffffffffffffffffffffffffffff1916908160001a905350600a85611d4f9190613835565b9450611cae565b8093505050505b919050565b6000600b600083815260200190815260200160002060009054906101000a900460ff169050611d908261143b565b611dcf576040517f08c379a0000000000000000000000000000000000000000000000000000000008152600401611dc690613912565b60405180910390fd5b80611e0f576040517f08c379a0000000000000000000000000000000000000000000000000000000008152600401611e069061397e565b60405180910390fd5b600a600083815260200190815260200160002054341015611e65576040517f08c379a0000000000000000000000000000000000000000000000000000000008152600401611e5c906139ea565b60405180910390fd5b611e6e82610aba565b73ffffffffffffffffffffffffffffffffffffffff163373ffffffffffffffffffffffffffffffffffffffff1603611edb576040517f08c379a0000000000000000000000000000000000000000000000000000000008152600401611ed290613a56565b60405180910390fd5b5050565b60003390506000611eef83610aba565b90506000600b600085815260200190815260200160002060006101000a81548160ff021916908315150217905550611f28818385611646565b60006014600a600086815260200190815260200160002054611f4a9190613835565b9050600081600a600087815260200190815260200160002054611f6d91906135ec565b90508273ffffffffffffffffffffffffffffffffffffffff166108fc829081150290604051600060405180830381858888f19350505050158015611fb5573d6000803e3d6000fd5b50600760009054906101000a900473ffffffffffffffffffffffffffffffffffffffff1673ffffffffffffffffffffffffffffffffffffffff166108fc839081150290604051600060405180830381858888f1935050505015801561201e573d6000803e3d6000fd5b50600a6000868152602001908152602001600020543411156120a0578373ffffffffffffffffffffffffffffffffffffffff166108fc600a6000888152602001908152602001600020543461207391906135ec565b9081150290604051600060405180830381858888f1935050505015801561209e573d6000803e3d6000fd5b505b5050505050565b505050565b505050565b6120bb83836122cb565b6120c8600084848461210c565b612107576040517f08c379a00000000000000000000000000000000000000000000000000000000081526004016120fe906137e6565b60405180910390fd5b505050565b600061212d8473ffffffffffffffffffffffffffffffffffffffff166124a4565b156122be578373ffffffffffffffffffffffffffffffffffffffff1663150b7a026121566114a7565b8786866040518563ffffffff167c01000000000000000000000000000000000000000000000000000000000281526004016121949493929190613acb565b6020604051808303816000875af19250505080156121d057506040513d601f19601f820116820180604052508101906121cd9190613b2c565b60015b612252573d8060008114612200576040519150601f19603f3d011682016040523d82523d6000602084013e612205565b606091505b50600081510361224a576040517f08c379a0000000000000000000000000000000000000000000000000000000008152600401612241906137e6565b60405180910390fd5b805181602001fd5b63150b7a027c0100000000000000000000000000000000000000000000000000000000027bffffffffffffffffffffffffffffffffffffffffffffffffffffffff1916817bffffffffffffffffffffffffffffffffffffffffffffffffffffffff1916149150506122c3565b600190505b949350505050565b600073ffffffffffffffffffffffffffffffffffffffff168273ffffffffffffffffffffffffffffffffffffffff160361233a576040517f08c379a000000000000000000000000000000000000000000000000000000000815260040161233190613ba5565b60405180910390fd5b6123438161143b565b15612383576040517f08c379a000000000000000000000000000000000000000000000000000000000815260040161237a90613c11565b60405180910390fd5b61238f600083836120a7565b6001600360008473ffffffffffffffffffffffffffffffffffffffff1673ffffffffffffffffffffffffffffffffffffffff16815260200190815260200160002060008282546123df9190613620565b92505081905550816002600083815260200190815260200160002060006101000a81548173ffffffffffffffffffffffffffffffffffffffff021916908373ffffffffffffffffffffffffffffffffffffffff160217905550808273ffffffffffffffffffffffffffffffffffffffff16600073ffffffffffffffffffffffffffffffffffffffff167fddf252ad1be2c89b69c2b068fc378daa952ba7f163c4a11628f55a4df523b3ef60405160405180910390a46124a0600083836120ac565b5050565b6000808273ffffffffffffffffffffffffffffffffffffffff163b119050919050565b8280546124d390612d28565b90600052602060002090601f0160209004810192826124f5576000855561253c565b82601f1061250e57805160ff191683800117855561253c565b8280016001018555821561253c579182015b8281111561253b578251825591602001919060010190612520565b5b509050612549919061254d565b5090565b5b8082111561256657600081600090555060010161254e565b5090565b6000604051905090565b600080fd5b600080fd5b60007fffffffff0000000000000000000000000000000000000000000000000000000082169050919050565b6125b38161257e565b81146125be57600080fd5b50565b6000813590506125d0816125aa565b92915050565b6000602082840312156125ec576125eb612574565b5b60006125fa848285016125c1565b91505092915050565b60008115159050919050565b61261881612603565b82525050565b6000602082019050612633600083018461260f565b92915050565b600081519050919050565b600082825260208201905092915050565b60005b83811015612673578082015181840152602081019050612658565b83811115612682576000848401525b50505050565b6000601f19601f8301169050919050565b60006126a482612639565b6126ae8185612644565b93506126be818560208601612655565b6126c781612688565b840191505092915050565b600060208201905081810360008301526126ec8184612699565b905092915050565b6000819050919050565b612707816126f4565b811461271257600080fd5b50565b600081359050612724816126fe565b92915050565b6000602082840312156127405761273f612574565b5b600061274e84828501612715565b91505092915050565b600073ffffffffffffffffffffffffffffffffffffffff82169050919050565b600061278282612757565b9050919050565b61279281612777565b82525050565b60006020820190506127ad6000830184612789565b92915050565b6127bc81612777565b81146127c757600080fd5b50565b6000813590506127d9816127b3565b92915050565b600080604083850312156127f6576127f5612574565b5b6000612804858286016127ca565b925050602061281585828601612715565b9150509250929050565b60008060006060848603121561283857612837612574565b5b6000612846868287016127ca565b9350506020612857868287016127ca565b925050604061286886828701612715565b9150509250925092565b600061287d82612757565b9050919050565b61288d81612872565b82525050565b60006020820190506128a86000830184612884565b92915050565b6000602082840312156128c4576128c3612574565b5b60006128d2848285016127ca565b91505092915050565b6128e4816126f4565b82525050565b60006020820190506128ff60008301846128db565b92915050565b600080fd5b600080fd5b7f4e487b7100000000000000000000000000000000000000000000000000000000600052604160045260246000fd5b61294782612688565b810181811067ffffffffffffffff821117156129665761296561290f565b5b80604052505050565b600061297961256a565b9050612985828261293e565b919050565b600067ffffffffffffffff8211156129a5576129a461290f565b5b6129ae82612688565b9050602081019050919050565b82818337600083830152505050565b60006129dd6129d88461298a565b61296f565b9050828152602081018484840111156129f9576129f861290a565b5b612a048482856129bb565b509392505050565b600082601f830112612a2157612a20612905565b5b8135612a318482602086016129ca565b91505092915050565b600080600060608486031215612a5357612a52612574565b5b600084013567ffffffffffffffff811115612a7157612a70612579565b5b612a7d86828701612a0c565b9350506020612a8e868287016127ca565b9250506040612a9f86828701612715565b9150509250925092565b60008060408385031215612ac057612abf612574565b5b6000612ace85828601612715565b9250506020612adf85828601612715565b9150509250929050565b612af281612603565b8114612afd57600080fd5b50565b600081359050612b0f81612ae9565b92915050565b60008060408385031215612b2c57612b2b612574565b5b6000612b3a85828601612715565b9250506020612b4b85828601612b00565b9150509250929050565b60008060408385031215612b6c57612b6b612574565b5b6000612b7a858286016127ca565b9250506020612b8b85828601612b00565b9150509250929050565b600067ffffffffffffffff821115612bb057612baf61290f565b5b612bb982612688565b9050602081019050919050565b6000612bd9612bd484612b95565b61296f565b905082815260208101848484011115612bf557612bf461290a565b5b612c008482856129bb565b509392505050565b600082601f830112612c1d57612c1c612905565b5b8135612c2d848260208601612bc6565b91505092915050565b60008060008060808587031215612c5057612c4f612574565b5b6000612c5e878288016127ca565b9450506020612c6f878288016127ca565b9350506040612c8087828801612715565b925050606085013567ffffffffffffffff811115612ca157612ca0612579565b5b612cad87828801612c08565b91505092959194509250565b60008060408385031215612cd057612ccf612574565b5b6000612cde858286016127ca565b9250506020612cef858286016127ca565b9150509250929050565b7f4e487b7100000000000000000000000000000000000000000000000000000000600052602260045260246000fd5b60006002820490506001821680612d4057607f821691505b602082108103612d5357612d52612cf9565b5b50919050565b7f4552433732313a20617070726f76656420717565727920666f72206e6f6e657860008201527f697374656e7420746f6b656e0000000000000000000000000000000000000000602082015250565b6000612db5602c83612644565b9150612dc082612d59565b604082019050919050565b60006020820190508181036000830152612de481612da8565b9050919050565b7f4552433732313a20617070726f76616c20746f2063757272656e74206f776e6560008201527f7200000000000000000000000000000000000000000000000000000000000000602082015250565b6000612e47602183612644565b9150612e5282612deb565b604082019050919050565b60006020820190508181036000830152612e7681612e3a565b9050919050565b7f4552433732313a20617070726f76652063616c6c6572206973206e6f74206f7760008201527f6e6572206e6f7220617070726f76656420666f7220616c6c0000000000000000602082015250565b6000612ed9603883612644565b9150612ee482612e7d565b604082019050919050565b60006020820190508181036000830152612f0881612ecc565b9050919050565b7f4552433732313a207472616e736665722063616c6c6572206973206e6f74206f60008201527f776e6572206e6f7220617070726f766564000000000000000000000000000000602082015250565b6000612f6b603183612644565b9150612f7682612f0f565b604082019050919050565b60006020820190508181036000830152612f9a81612f5e565b9050919050565b7f4552433732313a206f776e657220717565727920666f72206e6f6e657869737460008201527f656e7420746f6b656e0000000000000000000000000000000000000000000000602082015250565b6000612ffd602983612644565b915061300882612fa1565b604082019050919050565b6000602082019050818103600083015261302c81612ff0565b9050919050565b7f4552433732313a2062616c616e636520717565727920666f7220746865207a6560008201527f726f206164647265737300000000000000000000000000000000000000000000602082015250565b600061308f602a83612644565b915061309a82613033565b604082019050919050565b600060208201905081810360008301526130be81613082565b9050919050565b7f4f776e61626c653a2063616c6c6572206973206e6f7420746865206f776e6572600082015250565b60006130fb602083612644565b9150613106826130c5565b602082019050919050565b6000602082019050818103600083015261312a816130ee565b9050919050565b7f4e487b7100000000000000000000000000000000000000000000000000000000600052601160045260246000fd5b600061316b826126f4565b91507fffffffffffffffffffffffffffffffffffffffffffffffffffffffffffffffff820361319d5761319c613131565b5b600182019050919050565b60006060820190506131bd60008301866128db565b6131ca60208301856128db565b81810360408301526131dc8184612699565b9050949350505050565b7f4572726f722c20796f7520617265206e6f7420746865206f776e657200000000600082015250565b600061321c601c83612644565b9150613227826131e6565b602082019050919050565b6000602082019050818103600083015261324b8161320f565b9050919050565b600060608201905061326760008301866128db565b61327460208301856128db565b61328160408301846128db565b949350505050565b600060408201905061329e60008301856128db565b6132ab602083018461260f565b9392505050565b7f4552433732314d657461646174613a2055524920717565727920666f72206e6f60008201527f6e6578697374656e7420746f6b656e0000000000000000000000000000000000602082015250565b600061330e602f83612644565b9150613319826132b2565b604082019050919050565b6000602082019050818103600083015261333d81613301565b9050919050565b600081905092915050565b600061335a82612639565b6133648185613344565b9350613374818560208601612655565b80840191505092915050565b600061338c828561334f565b9150613398828461334f565b91508190509392505050565b7f4f776e61626c653a206e6577206f776e657220697320746865207a65726f206160008201527f6464726573730000000000000000000000000000000000000000000000000000602082015250565b6000613400602683612644565b915061340b826133a4565b604082019050919050565b6000602082019050818103600083015261342f816133f3565b9050919050565b7f4552433732313a206f70657261746f7220717565727920666f72206e6f6e657860008201527f697374656e7420746f6b656e0000000000000000000000000000000000000000602082015250565b6000613492602c83612644565b915061349d82613436565b604082019050919050565b600060208201905081810360008301526134c181613485565b9050919050565b7f4552433732313a207472616e736665722066726f6d20696e636f72726563742060008201527f6f776e6572000000000000000000000000000000000000000000000000000000602082015250565b6000613524602583612644565b915061352f826134c8565b604082019050919050565b6000602082019050818103600083015261355381613517565b9050919050565b7f4552433732313a207472616e7366657220746f20746865207a65726f2061646460008201527f7265737300000000000000000000000000000000000000000000000000000000602082015250565b60006135b6602483612644565b91506135c18261355a565b604082019050919050565b600060208201905081810360008301526135e5816135a9565b9050919050565b60006135f7826126f4565b9150613602836126f4565b92508282101561361557613614613131565b5b828203905092915050565b600061362b826126f4565b9150613636836126f4565b9250827fffffffffffffffffffffffffffffffffffffffffffffffffffffffffffffffff0382111561366b5761366a613131565b5b828201905092915050565b7f4552433732314d657461646174613a2055524920736574206f66206e6f6e657860008201527f697374656e7420746f6b656e0000000000000000000000000000000000000000602082015250565b60006136d2602c83612644565b91506136dd82613676565b604082019050919050565b60006020820190508181036000830152613701816136c5565b9050919050565b7f4552433732313a20617070726f766520746f2063616c6c657200000000000000600082015250565b600061373e601983612644565b915061374982613708565b602082019050919050565b6000602082019050818103600083015261376d81613731565b9050919050565b7f4552433732313a207472616e7366657220746f206e6f6e20455243373231526560008201527f63656976657220696d706c656d656e7465720000000000000000000000000000602082015250565b60006137d0603283612644565b91506137db82613774565b604082019050919050565b600060208201905081810360008301526137ff816137c3565b9050919050565b7f4e487b7100000000000000000000000000000000000000000000000000000000600052601260045260246000fd5b6000613840826126f4565b915061384b836126f4565b92508261385b5761385a613806565b5b828204905092915050565b6000613871826126f4565b915061387c836126f4565b92508261388c5761388b613806565b5b828206905092915050565b7f4e487b7100000000000000000000000000000000000000000000000000000000600052603260045260246000fd5b7f4572726f722c2077726f6e6720746f6b656e4964000000000000000000000000600082015250565b60006138fc601483612644565b9150613907826138c6565b602082019050919050565b6000602082019050818103600083015261392b816138ef565b9050919050565b7f4974656d206e6f74206c69737465642063757272656e746c7900000000000000600082015250565b6000613968601983612644565b915061397382613932565b602082019050919050565b600060208201905081810360008301526139978161395b565b9050919050565b7f4572726f722c2074686520616d6f756e74206973206c6f776572000000000000600082015250565b60006139d4601a83612644565b91506139df8261399e565b602082019050919050565b60006020820190508181036000830152613a03816139c7565b9050919050565b7f43616e206e6f7420627579207768617420796f75206f776e0000000000000000600082015250565b6000613a40601883612644565b9150613a4b82613a0a565b602082019050919050565b60006020820190508181036000830152613a6f81613a33565b9050919050565b600081519050919050565b600082825260208201905092915050565b6000613a9d82613a76565b613aa78185613a81565b9350613ab7818560208601612655565b613ac081612688565b840191505092915050565b6000608082019050613ae06000830187612789565b613aed6020830186612789565b613afa60408301856128db565b8181036060830152613b0c8184613a92565b905095945050505050565b600081519050613b26816125aa565b92915050565b600060208284031215613b4257613b41612574565b5b6000613b5084828501613b17565b91505092915050565b7f4552433732313a206d696e7420746f20746865207a65726f2061646472657373600082015250565b6000613b8f602083612644565b9150613b9a82613b59565b602082019050919050565b60006020820190508181036000830152613bbe81613b82565b9050919050565b7f4552433732313a20746f6b656e20616c7265616479206d696e74656400000000600082015250565b6000613bfb601c83612644565b9150613c0682613bc5565b602082019050919050565b60006020820190508181036000830152613c2a81613bee565b905091905056fea26469706673582212207c21ac77b4ad20b9a4b3ad59d349ac207d674daea6b7658ae06dc35f2c65ed6764736f6c634300080e0033",
  "immutableReferences": {},
  "source": "// SPDX-License-Identifier: MIT\npragma solidity >=0.4.22 <0.9.0;\n\nimport \"@openzeppelin/contracts/token/ERC721/ERC721.sol\";\nimport \"@openzeppelin/contracts/access/Ownable.sol\";\n\ncontract NFT is ERC721, Ownable {\n    address payable public _contractOwner;\n    uint256 public tokenCounter;\n    \n    mapping(uint => string) public tokenURIMap;\n    mapping(uint => uint) public priceMap;\n    mapping(uint => bool) public listedMap;\n\n    event Minted(address indexed minter, uint price, uint nftID, string uri);\n        \n    event PriceUpdate(address indexed owner, uint oldPrice, uint newPrice, uint nftID);\n\n    event NftListStatus(address indexed owner, uint nftID, bool isListed);\n\n    event Purchase(address indexed previousOwner, address indexed newOwner, uint price, uint nftID, string uri);\n\n    constructor() ERC721(\"OngamaNFTs\", \"ONGA\") {\n        _contractOwner = payable(msg.sender);\n        tokenCounter = 1;\n    }\n\n    function mint(string memory _tokenURI, address _toAddress, uint _price) public returns (uint) {\n        uint _tokenId = tokenCounter;\n        priceMap[_tokenId] = _price;\n        listedMap[_tokenId] = true;\n\n        _safeMint(_toAddress, _tokenId);\n        _setTokenURI(_tokenId, _tokenURI);\n\n        tokenCounter++;\n\n        emit Minted(_toAddress, _price, _tokenId, _tokenURI);\n\n        return _tokenId;\n    }\n\n    function buy(uint _id) external payable {\n        _validate(_id);\n\n        address _previousOwner = ownerOf(_id);\n        address _newOwner = msg.sender;\n\n        _trade(_id);\n\n        emit Purchase(_previousOwner, _newOwner, priceMap[_id], _id, tokenURI(_id));\n    }\n\n    function _setTokenURI(uint256 _tokenId, string memory _tokenURI) internal virtual {\n        require(_exists(_tokenId),\"ERC721Metadata: URI set of nonexistent token\"); \n        tokenURIMap[_tokenId] = _tokenURI;\n    }\n\n    function _validate(uint _id) internal {\n        bool _isItemListed = listedMap[_id];\n        require(_exists(_id), \"Error, wrong tokenId\");\n        require(_isItemListed, \"Item not listed currently\");\n        require(msg.value >= priceMap[_id], \"Error, the amount is lower\");\n        require(msg.sender != ownerOf(_id), \"Can not buy what you own\");\n    }\n\n    function _trade(uint _id) internal {\n        address payable _buyer = payable(msg.sender);\n        address payable _owner = payable(ownerOf(_id));\n\n        // Unlist NFT before transferring during a trade\n        listedMap[_id] = false;\n        _transfer(_owner, _buyer, _id);\n\n        // 5% commission cut\n        uint _commissionValue = priceMap[_id] / 20;\n        uint _sellerValue = priceMap[_id] - _commissionValue;\n\n        _owner.transfer(_sellerValue);\n        _contractOwner.transfer(_commissionValue);\n\n        // If buyer sent more than price, we send them back their rest of funds\n        if (msg.value > priceMap[_id]) {\n            _buyer.transfer(msg.value - priceMap[_id]);\n        }\n    }\n\n    function updatePrice(uint _tokenId, uint _price) public returns (bool) {\n        uint oldPrice = priceMap[_tokenId];\n        require(msg.sender == ownerOf(_tokenId), \"Error, you are not the owner\");\n        priceMap[_tokenId] = _price;\n\n        emit PriceUpdate(msg.sender, oldPrice, _price, _tokenId);\n\n        return true;\n    }\n\n    function updateListingStatus(uint _tokenId, bool shouldBeListed) public returns (bool) {\n        require(msg.sender == ownerOf(_tokenId), \"Error, you are not the owner\");\n\n        listedMap[_tokenId] = shouldBeListed;\n\n        emit NftListStatus(msg.sender, _tokenId, shouldBeListed);\n\n        return true;\n    }\n\n}\n",
  "sourcePath": "/Users/verdotte/ONGAMA PROJECT/ongama-nft-contract/contracts/NFT.sol",
  "compiler": {
    "name": "solc",
    "version": "0.8.14+commit.80d49f37.Emscripten.clang"
  },
  "schemaVersion": "3.4.7",
  "updatedAt": "2022-06-06T09:43:03.764Z",
  "devdoc": {
    "kind": "dev",
    "methods": {
      "approve(address,uint256)": {
        "details": "See {IERC721-approve}."
      },
      "balanceOf(address)": {
        "details": "See {IERC721-balanceOf}."
      },
      "getApproved(uint256)": {
        "details": "See {IERC721-getApproved}."
      },
      "isApprovedForAll(address,address)": {
        "details": "See {IERC721-isApprovedForAll}."
      },
      "name()": {
        "details": "See {IERC721Metadata-name}."
      },
      "owner()": {
        "details": "Returns the address of the current owner."
      },
      "ownerOf(uint256)": {
        "details": "See {IERC721-ownerOf}."
      },
      "renounceOwnership()": {
        "details": "Leaves the contract without owner. It will not be possible to call `onlyOwner` functions anymore. Can only be called by the current owner. NOTE: Renouncing ownership will leave the contract without an owner, thereby removing any functionality that is only available to the owner."
      },
      "safeTransferFrom(address,address,uint256)": {
        "details": "See {IERC721-safeTransferFrom}."
      },
      "safeTransferFrom(address,address,uint256,bytes)": {
        "details": "See {IERC721-safeTransferFrom}."
      },
      "setApprovalForAll(address,bool)": {
        "details": "See {IERC721-setApprovalForAll}."
      },
      "supportsInterface(bytes4)": {
        "details": "See {IERC165-supportsInterface}."
      },
      "symbol()": {
        "details": "See {IERC721Metadata-symbol}."
      },
      "tokenURI(uint256)": {
        "details": "See {IERC721Metadata-tokenURI}."
      },
      "transferFrom(address,address,uint256)": {
        "details": "See {IERC721-transferFrom}."
      },
      "transferOwnership(address)": {
        "details": "Transfers ownership of the contract to a new account (`newOwner`). Can only be called by the current owner."
      }
    },
    "version": 1
  },
  "userdoc": {
    "kind": "user",
    "methods": {},
    "version": 1
  }
}